{
  "_format": "hh3-artifact-1",
  "contractName": "Treasury",
  "sourceName": "contracts/contracts/Treasury.sol",
  "abi": [
    {
      "inputs": [
        {
          "internalType": "address",
          "name": "daoAddress",
          "type": "address"
        }
      ],
      "stateMutability": "nonpayable",
      "type": "constructor"
    },
    {
      "anonymous": false,
      "inputs": [
        {
          "indexed": true,
          "internalType": "address",
          "name": "sender",
          "type": "address"
        },
        {
          "indexed": false,
          "internalType": "uint256",
          "name": "amount",
          "type": "uint256"
        }
      ],
      "name": "FundsReceived",
      "type": "event"
    },
    {
      "anonymous": false,
      "inputs": [
        {
          "indexed": true,
          "internalType": "address",
          "name": "to",
          "type": "address"
        },
        {
          "indexed": false,
          "internalType": "uint256",
          "name": "amount",
          "type": "uint256"
        }
      ],
      "name": "FundsReleased",
      "type": "event"
    },
    {
      "inputs": [],
      "name": "balance",
      "outputs": [
        {
          "internalType": "uint256",
          "name": "",
          "type": "uint256"
        }
      ],
      "stateMutability": "view",
      "type": "function"
    },
    {
      "inputs": [],
      "name": "dao",
      "outputs": [
        {
          "internalType": "address",
          "name": "",
          "type": "address"
        }
      ],
      "stateMutability": "view",
      "type": "function"
    },
    {
      "inputs": [],
      "name": "deposit",
      "outputs": [],
      "stateMutability": "payable",
      "type": "function"
    },
    {
      "inputs": [
        {
          "internalType": "address",
          "name": "",
          "type": "address"
        }
      ],
      "name": "deposits",
      "outputs": [
        {
          "internalType": "uint256",
          "name": "",
          "type": "uint256"
        }
      ],
      "stateMutability": "view",
      "type": "function"
    },
    {
      "inputs": [
        {
          "internalType": "address payable",
          "name": "to",
          "type": "address"
        },
        {
          "internalType": "uint256",
          "name": "amount",
          "type": "uint256"
        }
      ],
      "name": "releaseFunds",
      "outputs": [],
      "stateMutability": "nonpayable",
      "type": "function"
    },
    {
      "stateMutability": "payable",
      "type": "receive"
    }
  ],
  "bytecode": "0x608060405234801561000f575f5ffd5b50604051610aaa380380610aaa83398181016040528101906100319190610142565b5f73ffffffffffffffffffffffffffffffffffffffff168173ffffffffffffffffffffffffffffffffffffffff160361009f576040517f08c379a0000000000000000000000000000000000000000000000000000000008152600401610096906101c7565b60405180910390fd5b805f5f6101000a81548173ffffffffffffffffffffffffffffffffffffffff021916908373ffffffffffffffffffffffffffffffffffffffff160217905550506101e5565b5f5ffd5b5f73ffffffffffffffffffffffffffffffffffffffff82169050919050565b5f610111826100e8565b9050919050565b61012181610107565b811461012b575f5ffd5b50565b5f8151905061013c81610118565b92915050565b5f60208284031215610157576101566100e4565b5b5f6101648482850161012e565b91505092915050565b5f82825260208201905092915050565b7f496e76616c69642044414f2061646472657373000000000000000000000000005f82015250565b5f6101b160138361016d565b91506101bc8261017d565b602082019050919050565b5f6020820190508181035f8301526101de816101a5565b9050919050565b6108b8806101f25f395ff3fe60806040526004361061004d575f3560e01c80634162169f146100f9578063b69ef8a814610123578063d0e30db01461014d578063d6e982e514610157578063fc7e286d1461017f576100f5565b366100f5573460015f3373ffffffffffffffffffffffffffffffffffffffff1673ffffffffffffffffffffffffffffffffffffffff1681526020019081526020015f205f82825461009e91906104e2565b925050819055503373ffffffffffffffffffffffffffffffffffffffff167f8e47b87b0ef542cdfa1659c551d88bad38aa7f452d2bbb349ab7530dfec8be8f346040516100eb9190610524565b60405180910390a2005b5f5ffd5b348015610104575f5ffd5b5061010d6101bb565b60405161011a919061057c565b60405180910390f35b34801561012e575f5ffd5b506101376101df565b6040516101449190610524565b60405180910390f35b6101556101e6565b005b348015610162575f5ffd5b5061017d600480360381019061017891906105fe565b6102cb565b005b34801561018a575f5ffd5b506101a560048036038101906101a09190610666565b610497565b6040516101b29190610524565b60405180910390f35b5f5f9054906101000a900473ffffffffffffffffffffffffffffffffffffffff1681565b5f47905090565b5f3411610228576040517f08c379a000000000000000000000000000000000000000000000000000000000815260040161021f906106eb565b60405180910390fd5b3460015f3373ffffffffffffffffffffffffffffffffffffffff1673ffffffffffffffffffffffffffffffffffffffff1681526020019081526020015f205f82825461027491906104e2565b925050819055503373ffffffffffffffffffffffffffffffffffffffff167f8e47b87b0ef542cdfa1659c551d88bad38aa7f452d2bbb349ab7530dfec8be8f346040516102c19190610524565b60405180910390a2565b5f5f9054906101000a900473ffffffffffffffffffffffffffffffffffffffff1673ffffffffffffffffffffffffffffffffffffffff163373ffffffffffffffffffffffffffffffffffffffff1614610359576040517f08c379a000000000000000000000000000000000000000000000000000000000815260040161035090610753565b60405180910390fd5b8047101561039c576040517f08c379a0000000000000000000000000000000000000000000000000000000008152600401610393906107bb565b60405180910390fd5b5f8273ffffffffffffffffffffffffffffffffffffffff16826040516103c190610806565b5f6040518083038185875af1925050503d805f81146103fb576040519150601f19603f3d011682016040523d82523d5f602084013e610400565b606091505b5050905080610444576040517f08c379a000000000000000000000000000000000000000000000000000000000815260040161043b90610864565b60405180910390fd5b8273ffffffffffffffffffffffffffffffffffffffff167f221c08a06b07a64803b3787861a3f276212fcccb51c2e6234077a9b8cb13047a8360405161048a9190610524565b60405180910390a2505050565b6001602052805f5260405f205f915090505481565b5f819050919050565b7f4e487b71000000000000000000000000000000000000000000000000000000005f52601160045260245ffd5b5f6104ec826104ac565b91506104f7836104ac565b925082820190508082111561050f5761050e6104b5565b5b92915050565b61051e816104ac565b82525050565b5f6020820190506105375f830184610515565b92915050565b5f73ffffffffffffffffffffffffffffffffffffffff82169050919050565b5f6105668261053d565b9050919050565b6105768161055c565b82525050565b5f60208201905061058f5f83018461056d565b92915050565b5f5ffd5b5f6105a38261053d565b9050919050565b6105b381610599565b81146105bd575f5ffd5b50565b5f813590506105ce816105aa565b92915050565b6105dd816104ac565b81146105e7575f5ffd5b50565b5f813590506105f8816105d4565b92915050565b5f5f6040838503121561061457610613610595565b5b5f610621858286016105c0565b9250506020610632858286016105ea565b9150509250929050565b6106458161055c565b811461064f575f5ffd5b50565b5f813590506106608161063c565b92915050565b5f6020828403121561067b5761067a610595565b5b5f61068884828501610652565b91505092915050565b5f82825260208201905092915050565b7f4d7573742073656e6420455448000000000000000000000000000000000000005f82015250565b5f6106d5600d83610691565b91506106e0826106a1565b602082019050919050565b5f6020820190508181035f830152610702816106c9565b9050919050565b7f4f6e6c792044414f2063616e2063616c6c0000000000000000000000000000005f82015250565b5f61073d601183610691565b915061074882610709565b602082019050919050565b5f6020820190508181035f83015261076a81610731565b9050919050565b7f496e73756666696369656e742062616c616e63650000000000000000000000005f82015250565b5f6107a5601483610691565b91506107b082610771565b602082019050919050565b5f6020820190508181035f8301526107d281610799565b9050919050565b5f81905092915050565b50565b5f6107f15f836107d9565b91506107fc826107e3565b5f82019050919050565b5f610810826107e6565b9150819050919050565b7f455448207472616e73666572206661696c6564000000000000000000000000005f82015250565b5f61084e601383610691565b91506108598261081a565b602082019050919050565b5f6020820190508181035f83015261087b81610842565b905091905056fea26469706673582212204adc8ef729447eb0faac6c4274c78acdb8002cbbe5122e4f97745827aaffe8cd64736f6c634300081c0033",
  "linkReferences": {},
  "deployedLinkReferences": {},
  "immutableReferences": {},
  "inputSourceName": "project/contracts/contracts/Treasury.sol",
  "buildInfoId": "solc-0_8_28-13bfda84e5368606e7ec519263c7d71c11f02007"
}